:020000040800F2
:100000004806002005010008FB270008391B0008EE
:10001000F9270008450A0008692C000800000000C4
:10002000000000000000000000000000FF270008A2
:100030008B0A000800000000FD27000801280008C6
:100040001F0100081F0100081F0100081F01000810
:100050001F0100081F0100081F0100081F01000800
:100060001F0100081F0100081F0100081F010008F0
:100070001F0100081F010008490A0008550A00086E
:100080001F0100081F0100081F0100081F010008D0
:100090001F0100081F0100081F0100081F010008C0
:1000A0001F0100081F0100081F0100081F010008B0
:1000B0001F0100081F0100081F0100081F010008A0
:1000C0001F0100081F0100081F0100081F01000890
:1000D0001F010008252C00081F0100081F0100084F
:1000E0001F0100081F0100081F010008DFF810D0E1
:1000F00000F096FC00480047A53D0008AFF30080E3
:10010000480600200648804706480047FEE7FEE70D
:10011000FEE7FEE7FEE7FEE7FEE7FEE7FEE7FEE7B7
:1001200061280008ED000008202A04DB203A21FAAB
:1001300002F00021704721FA02F3D040C2F1200200
:100140009140084319467047D2B201E000F8012BF4
:10015000491EFBD270470022F6E710B513460A4647
:1001600004461946FFF7F0FF204610BDF0B480EAC0
:100170000102D40F4200B2EB410F02D20246084600
:1001800011464A0042D0C30DDDB2C1F3C752AD1AC9
:10019000202D35DAC1F3160141F4000204B15242B8
:1001A000C5F1200602FA06F12A411044B3EBD05FF4
:1001B00023D0C4B1012DA0EBC35009DCF0BC4FF03B
:1001C000004202EAC352DBB200F5000000F003BBBC
:1001D000400000F1807000EBC350A0F1807040EA55
:1001E000D170490009E0490841EAC071A0EBC35051
:1001F00000F50000400800EBC350F0BC00F0E2BA8C
:100200006142012202EB4101001BF6E7F0BC70479E
:1002100081F00041AAE780F00040A7E780EA0102F0
:1002200010B502F00043400022D04A001FD0010E5A
:1002300001EB1261C0F35600C2F3560240F4000015
:1002400042F40002A0FB022000047F39140400D015
:10025000401C50EA124001D44000491EC2B20C06B4
:1002600004EBD010401C4008802A02D003E000209C
:1002700010BD20F00100002900DA0020184310BD55
:1002800030B480EA010202F0004530F0004221F073
:10029000004013D090B1C30DD40DC2F31601C0F3CA
:1002A0001600E41A41F4000140F400027D3491424A
:1002B00001D3641C00E04900002C02DA30BC0020AD
:1002C00070474FF400000023914201D3891A034381
:1002D00040084FEA4101F7D151B1914202D14FF0AC
:1002E000004105E002D24FF0010101E06FF0010191
:1002F00003EBC450284430BC00F064BA420005D07F
:10030000C0F3C7525242914201DC0020704700EB1B
:10031000C15070472DE9FE4F804681EA0300C00FAF
:100320000C46009021F0004123F00045B8EB02009C
:10033000A94105D24046214690461C460B4602463E
:1003400023F00040104347D0270DC7F30A00C3F342
:100350000A510290401A019040286BDAC3F313004F
:1003600040F4801B0098924620B10023D2EB030A90
:1003700063EB0B0B01985946C0F14002504600F068
:1003800000FA06460D4650465946019A00F008FA12
:1003900010EB08006141002487EA115284EAE773F8
:1003A0001A4340D0009A62B3019A012A4FEA0752D9
:1003B00015DC001B61EB02014FF0004202EA07521C
:1003C000CDE90042001C41F5801132462B4600F079
:1003D0003FFA03B0BDE8F08F40462146F9E7001B25
:1003E00061EB0201001C41F5801300185B412018ED
:1003F000A2F5001747EB030140EAD570B6196D412D
:1004000011E06D084FEA360645EAC0754FEA07521B
:10041000001B61EB0201001C41F5801149084FEA05
:1004200030000019514132462B4603B0BDE8F04F71
:1004300000F0FFB90098012240000023D0EB020237
:1004400063EBE073009821464FEAE074B8EB0000DC
:1004500061EB0401E9E783F000435BE781F00041D1
:1004600058E72DE9FE4F81EA030404F0004421F02F
:10047000004100944FF0000B23F0004350EA0104C8
:100480005ED052EA03045BD0C3F30A54C1F30A55A9
:100490002C44A4F2F3340194A0FB0254C1F31301E1
:1004A00041F48011C3F3130343F4801301FB0244AE
:1004B00000FB034E840A970A44EA815447EA8357B3
:1004C000A4FB076802958D0A05FB07854FEA932C6C
:1004D00004FB0C542705029D4FEA065847EA1637DD
:1004E000B5EB08056EEB070C870E920E47EA8117F5
:1004F00042EA8312A7FB0201B6EB0B0164EB000496
:100500002B0D43EA0C335E1844EB1C50DA4651467F
:10051000E7FB0201C5F313044FEA0B3343EA14531C
:100520004FEA0432019C43EA0603A4F10C0402944E
:10053000009CCDE900B400F08BF903B0BDE8F08F6A
:1005400000200146F9E72DE9F04D81EA030404F0AB
:10055000004B21F0004514464FF0000A23F0004103
:1005600050EA050220D054EA01021DD0C5F30A5713
:100570000246C5F31303C1F31300C1F30A5640F456
:10058000801543F48013A7EB0608101BD64608F22B
:10059000FD3873EB050002D308F1010801E0921861
:1005A0005B41B8F1000F03DA00200146BDE8F08D91
:1005B00000204FF48011064684460EE0171B73EBB3
:1005C000050705D3121B63EB050306434CEA010C38
:1005D00049084FEA300092185B4150EA0107EDD11B
:1005E00052EA030012D082EA040083EA05010843BC
:1005F00005D0101BAB4106D20122002306E00022E9
:100600004FF0004302E06FF0010253101AEB0600B6
:100610004CEB085110EB0A0041EB0B01BDE8F04D2B
:1006200000F007B970B521F0004303430CD0C1F3CB
:100630000A550024D5EB040564EB0403D617AD1A64
:10064000B34102DB0020014670BD201841EB02518E
:1006500070BDC10F80EAE0700844CA0796230021EC
:1006600000F0B9B800F0004220F00040C10DC0F326
:10067000160040F400007F2901DA00207047962917
:1006800003DCC1F19601C84001E096398840002A98
:10069000F4D04042704700F0004230F000400AD0F1
:1006A000C10D01F56071C0F3160042EA0151C208A4
:1006B00040071143704700200146704701F0004396
:1006C00030B421F0004150EA010206D00A0DA2F533
:1006D0006072C1F31301002A02DC30BC00207047B5
:1006E000440F44EAC104C100E01830BC00EBC25022
:1006F00000F068B830B50B460146002020220124E6
:1007000009E021FA02F59D4205D303FA02F5491BDF
:1007100004FA02F52844151EA2F10102F1DC30BDF5
:100720002DE9F05F0546002092469B468846064626
:10073000814640241BE02846414647462246FFF7B3
:10074000F3FC53465A46C01A914110D3114618463D
:10075000224600F016F82D1A67EB01084F46224694
:100760000120002100F00DF817EB00094E41201E7A
:10077000A4F10104DFDC484631462A464346BDE881
:10078000F09F202A04DB203A00FA02F10020704793
:100790009140C2F1200320FA03F3194390407047BF
:1007A000202A06DBCB17203A41FA02F043EAE07335
:1007B00006E041FA02F3D040C2F120029140084322
:1007C000194670470029A8BF7047401C490008BF60
:1007D00020F00100704710B4B0FA80FC00FA0CF071
:1007E00050EA010404BF10BC704749B1CCF12004A9
:1007F00021FA04F411FA0CF118BF01212143084336
:10080000A3EB0C01CB1D4FEA00614FEA102042BF61
:10081000002010BC704700EBC35010440029A4BF57
:1008200010BC7047401C490008BF20F0010010BCFC
:10083000704710B5141E73F1000408DA401C41F132
:10084000000192185B411A4301D120F0010010BD54
:100850002DE9F04D92469B4611B1B1FA81F202E0CA
:10086000B0FA80F220329046FFF78BFF04460F4625
:1008700040EA0A0041EA0B0153465A46084313D0A6
:10088000114653EA010019D0C8F140025046FFF763
:100890004BFC05460E46504659464246FFF771FF4F
:1008A000084305D0012004E020463946BDE8F08D1C
:1008B0000020054346EAE0762C4337430A98630557
:1008C000E40AA0EB08000022FD0A44EA47540A307B
:1008D00002D500200146E9E7010510196941DDE96B
:1008E000084500196941BDE8F04DA2E72DE9F04D3A
:1008F00000231A461B1A8A4103DB00200146BDE88B
:10090000F08DC1F30A52C1F3130141F480154FF089
:10091000000BD10702D100186D41521E002704467A
:1009200040F2FF11384601EB620A3E46804602461D
:1009300000204FF48011FFF7F7FBC2197141BB187B
:1009400046EB0100B4EB030C75EB000C04D3E41A86
:1009500065EB000517460E46241908F101006D41AC
:1009600080463428E3DDF91946EB0600091BA8414F
:1009700003D24FF0FF32134601E0002213461BEB77
:10098000070046EB0A51BDE8F04DFFF752BFC1F337
:100990000A52C1F3130140F2FF3341F480119A422D
:1009A00002DA00200146704740F233439A42A2F235
:1009B000334202DC5242FFF7B7BBFFF7E2BE000052
:1009C00030B5041E71F1000404DB4FF000444042D6
:1009D00064EB0101141E73F1000405DB1C464FF0AB
:1009E0000043524263EB04038B4208BF824230BD96
:1009F00030B5041E71F1000404DB4FF000444042A6
:100A000064EB0101141E73F1000405DB1C464FF07A
:100A10000043524263EB0403994208BF904230BD49
:100A2000064C074D06E0E06840F0010394E807003B
:100A300098471034AC42F6D3FFF75CFB483F000800
:100A4000683F0008FEE70000014800F091B8000090
:100A500048010020014800F08BB80000040100208C
:100A600030B590F840500124AC40C56B6C60046810
:100A700063604368102B036803D099600068C2600C
:100A800030BD9A600068C16030BD704772B6FEE745
:100A900010B590F821100022022905D004218163AD
:100AA00080F82020012010BD01680B6823F00E03A0
:100AB0000B6001680B6823F001030B6090F8403075
:100AC000C46B012101FA03F3636080F8211080F800
:100AD0002020104610BD000010B590F82110002411
:100AE000022903D00421816301243DE001680A68E2
:100AF00022F00E020A6001680A6822F001020A6010
:100B00001A4A0168914201D1012121E0174A1432A9
:100B1000914201D110211BE0144A2832914201D1A7
:100B2000891515E0114A3C32914201D189140FE038
:100B30000E4A5032914202D14FF4803108E00B4A04
:100B40006432914202D14FF4801101E04FF0807184
:100B5000064A083A5160012180F82110002180F8EE
:100B60002010416B01B18847204610BD08000240AB
:100B70002DE9F05FC16B0C6801680B68D0F840C0CC
:100B8000042202FA0CF2494DDFF824A1494E4A4FE3
:100B9000DFF828B1DFF828E122422CD05A072AD505
:100BA0000A68920603D40A6822F004020A60016807
:100BB000A94201D1042219E0514501D1402215E09A
:100BC000B14202D14FF4806210E0B94202D14FF439
:100BD00080420BE0594502D14FF4802206E0714576
:100BE00002D14FF4800201E04FF080622F490839B2
:100BF0004A60C16A3BE04FF0020808FA0CF818EAB4
:100C0000040F4FF000094FF0010235D05FEA8378FE
:100C100032D50B689B0605D40B6823F00A030B60E2
:100C200080F821200168A94201D1022219E0514532
:100C300001D1202215E0B14202D14FF4007210E040
:100C4000B94202D14FF400520BE0594502D14FF4A2
:100C5000003206E0714502D14FF4001201E04FF07E
:100C60000072124908394A6080F82090816A002990
:100C70001AD0BDE8F05F0847082505FA0CF52542B3
:100C800012D01B0710D50B6823F00E030B6090F8F1
:100C90004010C36B02FA01F15960826380F8212091
:100CA00080F82090016BE2E7BDE8F09F0800024069
:100CB0001C00024030000240440002405800024044
:100CC0006C00024030B528B308C8134914221944F7
:100CD000B1FBF2F18900C1631049816302214177C0
:100CE0001A6843F6F0718A43D0E900142143D0E931
:100CF00002452C432143046921434469214384690B
:100D00002143114319600021416301224277017799
:100D1000084630BD012030BDF8FFFDBF0000024095
:100D200070B5044690F82000002501280CD0012061
:100D300084F8200094F821600020012E06D084F869
:100D400020000225284670BD022070BD022684F8CE
:100D50002160A0632068066826F001060660204630
:100D6000FFF77EFEE06A00282068016802D041F0AB
:100D70000E0106E021F0040101602068016841F0E5
:100D80000A0101602068016841F001010160D9E7B2
:100D900070B5044600F008F90546601C02D004480E
:100DA0000078044400F000F9401BA042FAD370BD63
:100DB000040000202DE9F84FDFF8B891002409F174
:100DC000040A0AF1040B23460F270BF1040EC9E0B5
:100DD0000125A5402A40AA427DD1674ED1F804C022
:100DE000ACEB0608B44532D014DCBCF1030F3AD0AA
:100DF00009DCBCF1000F2AD0BCF1010F1CD0BCF102
:100E0000020F31D11DE0BCF1110F17D0BCF1120F50
:100E10002AD119E0B8F5881F19D006DCB8F5803F53
:100E200015D0B8F5801F1FD111E0B8F5001F0ED006
:100E3000B8F5041F18D10AE0CB6815E0CB681B1D7C
:100E400012E0CB6808330FE0CB680C330CE08B6802
:100E50002BB1012B4FF0080303D0456104E00423BC
:100E600002E0056100E00023FF2A01D8064601E008
:100E700000F104064FEA840501D9A5F12005D6F852
:100E8000008007FA05FC28EA0C0803FA05F548EA91
:100E90000508C6F800804D68ED0062D5374DAE6993
:100EA00046F00106AE61AD6924F0030605F00105C8
:100EB0000095334D06EB050CDCF80850A607360FFD
:100EC00007FA06F825EA0805DFF8B880404503D19F
:100ED0004FF0000817E044E0DFF8AC80404502D155
:100EE0004FF001080FE0DFF8A480404502D14FF039
:100EF000020808E0DFF89880404502D14FF003086F
:100F000001E04FF0040808FA06F848EA0508CCF8B2
:100F100008804D68D9F80060ED034D4601D51643B1
:100F200000E096432E604D68DAF80060AD03554648
:100F300001D5164300E096432E604D68DBF8006053
:100F4000ED025D4601D5164300E096432E604D68E4
:100F5000DEF80060AD02754601D5164300E0964309
:100F60002E60641C0D682A46E5407FF431AFBDE871
:100F7000F88F000000040140000011100010024032
:100F80000000014000080140000C01400010014039
:100F9000001401408068084000D0012070470AB169
:100FA000016170470904FBE7014880687047000051
:100FB0000400002002488168027811448160704773
:100FC00004000020074810B5016841F010010160DD
:100FD000032000F075F80F2000F006F800F024F868
:100FE000002010BD0020024070B50D4D04464FF4A6
:100FF0007A712878B1FBF0F00A490968B1FBF0F08A
:1010000000F0F0FA48B9102C07D200222146501EF9
:1010100000F036F800206C6070BD012070BD00004B
:1010200004000020100000200C4808B5816941F040
:1010300001018161816901F001010091C16941F003
:101040008051C161C06900F080500090044841683F
:1010500021F0E06141F00071416008BD00100240E4
:1010600000000140002809DB00F01F02012191402F
:101070004009800000F1E020C0F800117047000036
:10108000F0B40E4B1B680C46C3F30223C3F10705F3
:10109000042D00D90425191D072901D2002300E0E1
:1010A000DB1E012606FA05F1491E214099409E40AB
:1010B000761E16403143F0BC01F0FCBD0CED00E0A3
:1010C000064900F0070208684FF6FF03184040EA9F
:1010D0000220034A10430860704700000CED00E056
:1010E0000000FA052DE9F0470F46050061D0434E98
:1010F000306800F00700B84209D2306820F00700DD
:1011000038433060306800F00700B84251D1286899
:101110003B4C810712D5400703D5606840F4E0607E
:1011200060602878000703D5606840F46050606014
:101130006068A96820F0F000084360602878C00764
:1011400028D06868012810D02168022810D08907AB
:1011500000292EDA616821F0030101436160FFF785
:1011600023FF804641F288390DE021688903EFE7CB
:101170008901EDE7FFF718FFA0EB0801494502D907
:101180000320BDE8F0876068696800F00C00B0EBF0
:10119000810FEFD1306800F00700B8420BD93068FA
:1011A00020F0070038433060306800F00700B84294
:1011B00001D00120E5E72878400705D56068E96897
:1011C00020F4E060084360602878000706D5606876
:1011D000296920F4605040EAC100606000F038F8EE
:1011E0006168084AC1F30311515CC84006490860B0
:1011F00006480068FFF7F8FE0020C2E70020024022
:1012000000100240403E00081000002008000020AE
:101210000448054900684968044AC1F30221515C49
:10122000C84070471000002000100240503E0008E7
:101230000448054900684968044AC1F3C221515C69
:10124000C84070471000002000100240503E0008C7
:1012500013A185B00FC98DE80F0015A0154A0068CD
:101260000490516801F00C00042804D0082804D030
:10127000114805B070471148FBE7C1F38343C90328
:101280001DF8030009D5516804AAC1F34041515C1F
:101290000A4A5043B0FBF1F0EBE709494843E8E75D
:1012A00002030405060708090A0B0C0D0E0F1010A7
:1012B000010200000010024000127A00001BB7007B
:1012C00000093D002DE9F84F040070D02078C04D92
:1012D000C00749D06868C0F38100012807D068685A
:1012E000C0F38100022809D16868C00306D52868C8
:1012F000800339D560680028E7D035E06068B0F534
:10130000803F0BD010B1B0F5A02F11D0286820F489
:1013100080302860286820F4802002E0286840F4AB
:1013200080302860606890B1FFF73EFE06460AE014
:10133000286840F480202860F0E700BFFFF734FE03
:10134000801B642873D828688003F7D50CE0FFF76A
:101350002BFE064605E000BFFFF726FE801B642833
:10136000F0D828688003F7D420789A4E80074FF091
:1013700001094FF0000839D5686810F00C0F07D04C
:101380006868C0F38100022809D16868C00306D4E8
:101390002868800714D52069012808D110E0206949
:1013A000B0B1C6F80090FFF7FFFD074605E00AE17F
:1013B000FFF7FAFDC01B0228C4D828688007F7D5BC
:1013C0002868616920F0F80040EAC10028600DE05B
:1013D000C6F80080FFF7E8FD074604E0FFF7E4FDEC
:1013E000C01B022823D828688007F7D4207800077C
:1013F0002CD57948A169D9B1C0F80090FFF7D4FD88
:10140000074604E0FFF7D0FDC01B02280FD8686A2A
:101410008007F7D571484FF4FA510068B0FBF1F03E
:10142000009000BF0098411E0091FAD20EE080E0CB
:10143000C0F80080FFF7B8FD074604E0FFF7B4FDF1
:10144000C01B022875D8686A8007F7D42078400747
:1014500060D5E8690027C00008D4E86940F08050F2
:10146000E861E869012700F0805000905C4801685D
:10147000C90513D40168834641F480710160FFF708
:1014800093FD824606E000BFFFF78EFDA0EB0A0049
:1014900064284ED8DBF80000C005F5D5E0680128C7
:1014A0000AD008B1052813D0286A20F0010028626C
:1014B000286A20F0040002E0286A40F00100286257
:1014C000E06841F2883B98B1FFF76EFD82460BE081
:1014D000286A40F004002862EEE700BFFFF764FDD1
:1014E000A0EB0A0159455AD8286A8007F6D50CE0C6
:1014F000FFF75AFD824605E0FFF756FDA0EB0A0113
:1015000059454CD8286A8007F6D41FB1E86920F005
:101510008050E861E06988B36968C1F381010229FC
:1015200044D00228C6F8608004D0FFF73DFD044691
:1015300038E034E0FFF738FD074604E0FFF734FDFC
:10154000C01B02282BD828688001F7D4206AB0F588
:10155000803F05D16868A16820F4003008436860C6
:10156000D4E908010843696821F4741108436860EC
:10157000C6F86090FFF718FD044606E025E000BFBE
:10158000FFF712FD001B022809D828688001F7D553
:101590001BE000BFFFF708FD001B022802D9032053
:1015A000BDE8F88F28688001F4D40EE00128F7D058
:1015B0006868226A00F48031914204D1616A00F4C3
:1015C0007010884201D00120EAE70020E8E700001F
:1015D00000100240000042428004424210000020FD
:1015E0000070004010B5401EB0F1807F01D3012093
:1015F00010BD4FF0E02460610F21601701F05AFB2D
:101600000020A06107202061002010BD704710B5A8
:1016100004460068416994F83D20C1F3C011212AB5
:101620000BD151B1416921F080014161606B08B17A
:10163000FFF72EFA204601F0AFF92068416994F8CF
:101640003E20C1F38011222A0BD151B1416921F012
:1016500040014161A06B08B1FFF71AFA204601F082
:1016600083F9002010BD7047F8B502680446106881
:10167000D168536910F00F0F4FF0000553D003F0FD
:10168000010601F4907737435FD0C20705D0CA0541
:1016900003D5226C42F001022264420705D5DA0725
:1016A00003D0226C42F002022264820705D5DA07D9
:1016B00003D0226C42F004022264020707D501F035
:1016C0002002324303D0226C42F008022264226CD2
:1016D000002A34D0800604D5880602D5204601F0C1
:1016E00064F920684069216CC0F38010090700D4B8
:1016F00030B3204601F038F92068416949061BD50E
:10170000416921F040014161A06BA8B15849416392
:10171000A06BFFF7E1F9002811D0A06B416B01B07D
:10172000BDE8F040084783060FD58B060DD520464F
:10173000BDE8F84001F039B92046FFF794FFF8BD45
:101740002046FFF790FF2564F8BD266B2023012E6D
:1017500052D1C60650D5CE064ED5106850680090BE
:10176000506940062AD5A16B086840680004000C47
:10177000EAD0A68D8642E7D9E0858869202818D06E
:10178000D06820F48070D0602068416921F00101A8
:1017900041612068416921F04001416184F83E3097
:1017A00025632068C16821F01001C160A06BFFF7BC
:1017B0006FF9A08DE18D401A81B219E0A08DE18D05
:1017C000401A81B2E08D0028BED00029BCD0D0687C
:1017D00020F49070D0602068426922F001024261DA
:1017E00084F83E3025632068C26822F01002C2608F
:1017F0002046FFF70BFFF8BD05062BD50D0629D5B2
:1018000094F83D002128F6D1A068B0F5805F01D1A1
:101810002069B0B1206A411C2162216800784860CB
:10182000E08C401E0004000CE084E4D12068C16814
:1018300021F08001C1602068C16841F04001C160B1
:10184000F8BD206A0088C0F308005060206A801C40
:101850002062E5E74006F3D54806F1D5D168204679
:1018600021F04001D16084F83D3000F063F9F8BD0B
:101870006328000870B5040004D094F83D000025EA
:1018800010B106E0012070BD84F83C50204600F005
:1018900023F8242084F83D002068C16821F4005119
:1018A000C160204601F0DCF82068016921F4904114
:1018B00001612068416921F02A0141612068C16805
:1018C00041F40051C1602564202084F83D0084F873
:1018D0003E00002070BD00002DE9F04186B00024DC
:1018E00006460094019402940394006832498842A9
:1018F0005ED13248816941F480418161816901F49E
:1019000080410491816941F00801816180692C4D19
:1019100000F0080004904020009002200190032075
:10192000039069462846FFF745FA4FF08008CDE955
:1019300000844746694628460294FFF73BFA21484F
:10194000416841F0E06141F0040141601F4D1E48D3
:10195000C5E90004C5E902472C614FF400576C61EA
:10196000C5E906472846FFF7ADF908B1FFF78EF83D
:10197000B5636E62154D14484435143801C5102006
:10198000A5E81101114845F8104944306C61C5E9DA
:101990000647FFF797F908B1FFF778F8756300225B
:1019A000114625206E62FFF76BFB2520FFF75AFBDF
:1019B00006B0BDE8F0810000003801400010024090
:1019C000000C0140000001405800024004010020CA
:1019D00090F83E30202B0ED159B152B190F83C30E6
:1019E000012B08D0012380F83C300023036301F071
:1019F00093B801207047022070477047704700007D
:101A00002DE9F843044690F83D001F4616460D4662
:101A100020284CD1C5B1BEB194F83C00012846D075
:101A2000012084F83C004FF00008C4F840802120D9
:101A300084F83D00FFF7B8FAA6848146E684A068E2
:101A4000B0F5805F03D004E00120BDE8F883206991
:101A500028B12E465FF0000584F83C800EE0002699
:101A6000FAE78021204601F08FF8A0B9AEB116F850
:101A7000010B21684860E08C401EE084E08C4B46FE
:101A80004FF0000200970028EBD14FF040012046B4
:101A900001F07AF830B10320D7E735F8020BC0F334
:101AA0000800E6E7202084F83D000020CDE7022072
:101AB000CBE7000070B5044690F83D00202830D1F7
:101AC00069B362B394F83C0001282AD0012084F85D
:101AD0003C002162A284E28400252564212084F850
:101AE0003D00636B10489862636B1048D862636B6B
:101AF0000F481863606B134645632668606B321DA0
:101B0000FFF70EF921686FF04000086084F83C5040
:101B10002068416941F080014161002070BD0120D1
:101B200070BD022070BD0000312900085F29000847
:101B30007328000870477047FEE70000154810B58D
:101B4000816986B041F008018161816901F0080175
:101B50000491816941F00801816180690E4C00F0B7
:101B6000080004904FF480600090012001900290E2
:101B70000320039069462046FFF71CF9E01400900B
:101B80001120019069462046FFF714F900F090F803
:101B900006B010BD00100240000C01402DE9F047D6
:101BA0000024174E804625464FF400694FF48067A5
:101BB0006006040E012239463046FFF7F0F9022094
:101BC00002F062F849463046FFF7E4F908B1641CB8
:101BD000E4B2002239463046FFF7E1F9022002F074
:101BE00053F86D1CEDB2082DE2D3B8F1000F04D00C
:101BF00002F074F82046BDE8F08702F099F8F9E7A2
:101C0000000C01402DE9F041154F002405464FF42A
:101C100000683E15280601D5012200E00022414659
:101C20003846FFF7BCF9022002F02EF801223146B7
:101C30003846FFF7B4F9022002F026F800223146B8
:101C40003846FFF7ACF96806641C050EE4B2082CB0
:101C5000E0D341463846BDE8F0410122FFF79FB985
:101C6000000C014070B50122104DD40221462846D7
:101C7000FFF795F90122960231462846FFF78FF9C2
:101C8000022002F001F8002221462846FFF787F9DA
:101C9000022001F0F9FF002231462846FFF77FF9C4
:101CA000BDE87040022001F0EFBF0000000C0140D1
:101CB00070B50E4D4FF40064002221462846FFF710
:101CC0006EF9022001F0E0FF012291022846FFF7A1
:101CD00066F9022001F0D8FF012221462846FFF7CD
:101CE0005EF9BDE87040022001F0CEBF000C01405B
:101CF0002DE9F0410122174E0024D702254639462E
:101D00003046FFF74CF9022001F0BEFF4FF4806827
:101D1000012241463046FFF742F9022001F0B4FFAC
:101D200007E0641CE4B2FA2C03D9FFF7C1FF0125D8
:101D300005E039463046FFF72DF90028F1D10022A1
:101D400041463046FFF72BF9022001F09DFF28465F
:101D5000BDE8F081000C014010B500F06DFA040000
:101D600008D16420FFF714F800F042F96420FFF76F
:101D70000FF8204610BD00002DE9F04F8BB002ADEA
:101D8000002408A9684600F0ABF9DFF810826E461F
:101D900008AF00BF36F91400FEF75BFC4146FEF7C2
:101DA0006FFA45F8240037F91400FEF752FC05EBF2
:101DB0008401641CC860032CECDB794F049839461D
:101DC000FEF72CFA774E3146FEF75AFA04463946AA
:101DD0000398FEF723FA3146FEF752FA05463946D4
:101DE0000298FEF71BFA3146FEF74AFADDE90612C1
:101DF000CDE9001222462946059B00F06DFB6A489A
:101E000000686A4D834628606948006868608146BA
:101E100068480068A860804667480068E8608246B5
:101E200005F110040598A0610698E061079820620A
:101E30000298E06003982061049860614146404642
:101E4000FEF7ECF9064649460846FEF7E7F9314643
:101E5000FEF78CF90121FEF751FA4FF07E51FEF7A3
:101E6000DAF9FEF718FC06460F4651464046FEF7E3
:101E7000D5F9804649465846FEF7D0F94146FEF767
:101E800075F90121FEF73AFAFEF705FC32463B46AA
:101E900001F02CFEDFF8249100224B46FEF7E1FA18
:101EA0004FF0C04A5246464BFEF74DFBFEF706FC8C
:101EB0006060E9686868FEF7B1F90646A9682868B5
:101EC000FEF7ACF93146FEF7A3F90121FEF716FA49
:101ED00020F00041C1F1FF41002901D500200FE0B1
:101EE000B0F17E5F01DB37480AE010F1814F01D38A
:101EF000354805E0FEF7CFFB01F0B0FBFEF7DEFB57
:101F00002849FEF78BF93149FEF7BAF9A04620605F
:101F1000294C01212068FEF7F1F92168FEF77EF9CE
:101F2000244D06464FF040412868FEF777F92968AE
:101F3000FEF774F93146FEF76BF94FF07E51FEF76C
:101F400015F9FEF7A8FB064617480F460121006861
:101F5000FEF7D4F92168FEF761F90446144801211F
:101F60000068FEF7CBF92968FEF758F92146FEF71D
:101F7000FDF8FEF790FB32463B4601F0B7FD00222C
:101F80004B46FEF76EFA5246114BFEF7DCFAFEF7AF
:101F900095FBC8F808000BB0BDE8F08F33338341E0
:101FA000DB0F4940000034431C0000209801002052
:101FB000200000202400002028000020008066402F
:101FC000FB210940DB0FC93FDB0FC9BFDB0F49C055
:101FD000FB2109C00022114630F91130491C1A4476
:101FE0000A29F9DB0A2092FBF0F000B270470000EA
:101FF0002DE9F0410027DFF8AC8088B03E46C8F8F4
:102000001070C8F814703D463C46C8F818700A2095
:10201000FEF7BEFE06A904A800F062F8641C642C5A
:10202000F5D300240A20FEF7B3FE06A904A800F0A9
:1020300057F8BDF91000641C0744BDF91200642C68
:102040000644BDF914000544ECD3642496FBF4F077
:10205000FEF7FFFA4646C8F81000804697FBF4F0FA
:10206000FEF7F7FA0746706195FBF4F0FEF7F1FA18
:10207000B061FEF710FB04460D463846FEF70BFB39
:1020800006460F464046FEF706FB02460B4606A0F4
:10209000CDE90245CDE9006700F0E8FD08B0BDE8F4
:1020A000F08100003800002050697463685F6F663B
:1020B00066736574203D2025662C526F6C6C5F6FD3
:1020C0006666736574203D2025662C5961775F6FC5
:1020D0006666736574203D2025660D0A00000000C9
:1020E0002DE9F84F394D0E4607462A1DA91C2846F2
:1020F00000F089F805F10A02911EA81D00F06AF8A7
:10210000334C05F140022988207822F8101002F1A2
:10211000140100916A8821F8102001F1140BAA889B
:102120002BF8102001F1280AEA882AF8102001F182
:102130003C092A8929F8102001F150086A8928F8F9
:1021400010200A21401CB0FBF1F201FB12002070AC
:1021500005F14000FFF73EFF60800098FFF73AFF6F
:10216000A0805846FFF736FFE0800546B4F902002C
:10217000FEF76FFA6169FEF74BF8FEF773FA3880E5
:10218000B4F90400FEF765FA2169FEF741F8FEF79D
:1021900069FA78802846FEF75CFAA169FEF738F8FC
:1021A000FEF760FAB8805046FFF714FF20814846DA
:1021B000FFF710FF60814046FFF70CFFA0812189E7
:1021C000318061897180B080BDE8F88F8C0100207A
:1021D000380000207CB514460D4606466B460622A4
:1021E0003B21682000F084F800280BD1BDF80010D6
:1021F00049BA3180BDF8021049BA2980BDF80410EF
:1022000049BA21807CBD7CB514460D4606466B4616
:1022100006224321682000F06BF800280BD1BDF89E
:10222000001049BA3180BDF8021049BA2980BDF8C2
:10223000041049BA21807CBD10B5FFF77FFC8021D6
:102240006B2000F0B8F86420FEF7A2FD00216B209F
:1022500000F0B1F818211B2000F0ADF800211C207F
:1022600000F0A9F84FF47A74204600F077F80021C6
:10227000382000F0A0F800216A2000F09CF800212E
:10228000232000F098F88021372000F094F8752082
:1022900000F011F8682801D0012010BD01216B2049
:1022A00000F089F800216C2000F085F8204600F04D
:1022B00055F8002010BD10B50446FFF7D3FCD02020
:1022C000FFF7A0FCFFF714FD2046FFF79BFCFFF78C
:1022D0000FFDFFF7C7FCD120FFF794FCFFF708FDC7
:1022E0000020FFF75BFC0446FFF7E2FC204610BD30
:1022F0002DE9F0411D4614460F460646FFF7B2FC95
:102300007006000EFFF77EFCFFF7F2FC20B1FFF72E
:10231000CFFC0120BDE8F0813846FFF773FCFFF7E2
:10232000E7FCFFF79FFC012000EB4600C0B2FFF77F
:1023300069FCFFF7DDFC09E0012C0DD05FF0010026
:10234000FFF72CFC641E05F8010BE4B2002CF3D15E
:10235000FFF7AEFC0020DDE70020F1E710B50446F2
:102360004FF47A70844201D9044602E0042C00D272
:102370000424B0FBF4F0401EC1B2192000F01BF899
:102380006008BC2801D3012110E0622801D302219A
:102390000CE02A2801D3032108E0142801D30421EA
:1023A00004E00A2801D3052100E00621BDE8104021
:1023B0001A20AFF3008070B50C460546FFF752FCBB
:1023C000D020FFF71FFCFFF793FC50B92846FFF71A
:1023D00019FCFFF78DFC2046FFF714FCFFF788FC83
:1023E00018B1FFF765FC012070BDFFF761FC00200C
:1023F00070BD00000D4808B5416941F0010141611F
:102400004069002200F00100009011460E20FEF706
:1024100037FE0E20FEF726FE002211460F20FEF7A3
:102420002FFEBDE808400F20FEF71CBE0010024042
:1024300070B586B000241848009401940294039467
:10244000816941F020018161816901F020010491DD
:10245000816941F008018161816901F008010491FD
:10246000816941F00401816180690C4E00F0040033
:102470004FF470650490002229463046FEF78FFD28
:1024800001200095CDE90104032003906946304600
:10249000FEF790FC06B070BD00100240000C014039
:1024A0000C4810B50A4901604FF4E1314160002148
:1024B00081600C22C160C0E904128161C161FFF733
:1024C000D9F9002803D0BDE81040FEF7DFBA10BDEF
:1024D00000380140C00000202DE9FF4F83B0C34CFD
:1024E000DDE91065994690468A46834613F0FF4F12
:1024F00005D116F0FF4F02D115F0FF4F7ED02946CF
:102500002846FDF78BFE314600900846FDF786FE13
:10251000074649460846FDF781FE3946FDF726FE87
:102520000099FDF723FE01F023FC074601464846CB
:10253000FDF774FE814639463046FDF76FFE109078
:1025400039462846FDF76AFE11902169A068FDF71B
:1025500065FE61690546E068FDF760FE2946FDF706
:1025600057FE616907462069FDF758FEE168054698
:10257000A068FDF753FE2946FDF7F8FD61690646A0
:102580006069FDF74BFEA1680546A068FDF746FEB1
:102590004FF07C51FDF73CFE2946FDF7E7FD05466F
:1025A00031461198FDF73AFE009029461098FDF744
:1025B00035FE0099FDF72CFE019029464846FDF7AF
:1025C0002DFE054639461198FDF728FE2946FDF7F0
:1025D0001FFE009039461098FDF720FE0546314653
:1025E0004846FDF71BFE2946FDF712FE05466068CA
:1025F000B0F5000F33DB0199606800E04BE0FDF7B8
:102600000DFE7B4E3146FDF709FEA169FDF7AEFDDB
:10261000A06100996068FDF701FE3146FDF7FEFDFF
:10262000E169FDF7A3FDE06129466068FDF7F6FD6D
:102630003146FDF7F3FD216AFDF798FD2062A1699F
:102640005846FDF793FDE16983465046FDF78EFD40
:10265000216A82464046FDF789FD804603E000205E
:10266000A061E061206201992068FDF7D7FD59461D
:10267000FDF77CFD834600992068FDF7CFFD5146AC
:10268000FDF774FD824629462068FDF7C7FD4146E7
:10269000FDF76CFD8046574D58462946FDF7BEFDB7
:1026A000039029465046FDF7B9FD8346294640462A
:1026B000FDF7B4FDA7688246E568266901466069B2
:1026C000FDF7ACFD814659463046FDF7A7FD804633
:1026D00085F000400399FDF7A1FD4146FDF798FD07
:1026E0004946FDF795FDA168FDF740FDA0605946FC
:1026F0006069FDF793FD814651463046FDF78EFD3A
:10270000804639460398FDF789FD4146FDF72EFDC9
:102710004946FDF77DFDE168FDF728FDE060616950
:102720000398FDF77BFD814651462846FDF776FD6F
:10273000804659463846FDF771FD4146FDF768FD74
:102740004946FDF713FD2169FDF710FD2061314673
:102750000398FDF763FD064659462846FDF75EFDE2
:10276000054651463846FDF759FD2946FDF7FEFC62
:102770003146FDF74DFD6169FDF7F8FC6061616967
:102780006069FDF74BFD216907462069FDF746FDAD
:10279000E1680646E068FDF741FDA1680546A068CE
:1027A000FDF73CFD2946FDF7E1FC3146FDF7DEFC77
:1027B0003946FDF7DBFC01F0DBFA05460146A0686F
:1027C000FDF72CFDA0602946E068FDF727FDE060DD
:1027D00029462069FDF722FD206129466069FDF741
:1027E0001DFD606107B0BDE8F08F000014000020FF
:1027F0006F12033B6F12833AFEE7FEE770477047A4
:10280000FEF7D8BB30B58FB028216846FDF7A3FC92
:1028100014210AA8FDF79FFC01210804CDE900104E
:102820000024029402250491CDE90750000109908B
:102830006846FEF747FD08B172B6FEE70F20CDE906
:102840000A054FF48060CDE90C4002210AA80E94DD
:10285000FEF748FC002801D072B6FEE70FB030BD8D
:10286000704710B5406A0021C185C184FEF7FBFEA8
:1028700010BD70B5446A2068406994F83D10C0F3FB
:10288000C0100025212904D118B1E584204600F0AC
:1028900083F82068406994F83E10C0F38010222924
:1028A00004D118B1E585204600F05EF8206C40F0B8
:1028B000100020642046FEF7D6FE70BD10B501461C
:1028C000406A0968096889061BD40021C18501682E
:1028D000CA6822F48072CA6001684A6922F0010263
:1028E0004A6101684A6922F040024A61202180F869
:1028F0003E10016B012904D10168CA6822F0100260
:10290000CA60016B012902D0FFF777F810BD818DF5
:10291000FEF77CFE10BD10B5406A016B012902D0A4
:10292000FFF76CF810BD818D4908FEF76FFE10BDF2
:1029300010B50146406A0968096889060CD400216F
:10294000C18401684A6922F080024A610068C16856
:1029500041F04001C16010BDFFF7ECF810BD10B5AB
:10296000406AFFF7E8F810BD0168CA6822F4907267
:10297000CA6001684A6922F001024A61016B0129BB
:1029800004D10168CA6822F01002CA60202180F8D0
:102990003E100021016370470168CA6822F0C0023E
:1029A000CA60202180F83D10704708B590F83E10AD
:1029B000222901D0022008BD82684FF480539A4238
:1029C00001D1016921B1816A9A421BD04AB10AE062
:1029D0000268816A5268C2F308020A80816A891C0F
:1029E00008E0026972B10268526802F07F020A7060
:1029F000816A491C8162C18D491E0904090CC18587
:102A000003D019E002685268F1E70168CA6822F051
:102A10002002CA600168CA6822F48072CA60016834
:102A20004A6922F001024A61202180F83E10016BC0
:102A3000012903D0FEF7E1FF002008BD002101635A
:102A40000168CA6822F01002CA6001680A68D206EA
:102A500002D50A6849680091818DFEF7D7FDEBE742
:102A600070B5044600680169E26821F440511143E1
:102A700001612169A0680843616908432168CA6847
:102A800041F20C639A430243CA6020684169A2691B
:102A900021F44071114341611E492068884202D1EE
:102AA000FEF7C6FB01E0FEF7B3FB00EBC00101EB54
:102AB0000012606864218000B2FBF0F3B3FBF1F315
:102AC0006FF018067343B2FBF0F5B2FBF0F605EBBE
:102AD0008305322303EB0515B5FBF1F5B6FBF1F6E3
:102AE00005F0F00505EB0615B2FBF0F6B2FBF0F0D1
:102AF000B0FBF1F06FF01802504306EB800003EBDF
:102B00000010B0FBF1F0216800F00F00284488604D
:102B100070BD00000038014038B581628285002513
:102B2000134604460564222084F83E00A26B134835
:102B30009062A26B1248D062A26B12481063A06B25
:102B40000A4645632168A06B091DFEF7E9F8206875
:102B500001684168009184F83C50C16841F480717B
:102B6000C1602068416941F001014161206841690B
:102B700041F040014161002038BD0000BD2800083F
:102B800017290008732800082DE9F04198461746D8
:102B90000E460446069D1DE0681C1BD02DB1FEF7B5
:102BA00003FAA0EB0800A84214D92068C16821F4F8
:102BB000D071C1602068416921F00101416120208C
:102BC00084F83D0084F83E00002084F83C00032097
:102BD000BDE8F0812068006836EA000004D00020DB
:102BE000B842D9D00020F3E70120F9E710B50B4C2B
:102BF0002078012810D10A49628801F16400FEF7AB
:102C000059FF0020608020700549BDE81040642213
:102C100001F16400FEF7DCBE10BD000000000020E2
:102C20005C00002008B50E48FEF71EFD0C48006849
:102C30000168C1F30011002911D0016841680091B9
:102C4000016840680648FEF7E2FC05484430006829
:102C50004068C0F16401034841800121017008BD52
:102C6000C000002000000020FEE700000FB4054B6C
:102C700010B503A9044A029800F06CF910BC5DF885
:102C800014FB0000B93C000854000020490050EA41
:102C9000C12018BF04204A0D18BF40F0010040F2C7
:102CA000FF72B2EB515F08BF40F00200012808BF7D
:102CB000052070470907090E002804DB00F1E02019
:102CC00080F80014704700F00F0000F1E02080F859
:102CD000141D70472DE9F0414F1E00EBC70104465B
:102CE000D1E9000115461E4637F006020DD02A46EE
:102CF0003346FDF7B6FB7F1E04EBC703D3E9002381
:102D0000FDF708FB37F00602F1D1022F25D0042F82
:102D100013D0062F18BFBDE8F0812A463346FDF7D1
:102D2000A0FBD4E90A23FDF7F5FA2A463346FDF75E
:102D300098FBD4E90823FDF7EDFA2A463346FDF760
:102D400090FBD4E90623FDF7E5FA2A463346FDF762
:102D500088FBD4E90423FDF7DDFA2A463346FDF764
:102D600080FBD4E90223FDF7D5FA2A463346FDF766
:102D700078FBD4E90023BDE8F041FDF7CBBA01228E
:102D8000FDF750BCFDF7C6BA0022134610461146A7
:102D9000FDF7D9BB024A00201107FDF743BC000034
:102DA00001FDFFFF02E008C8121F08C1002AFAD186
:102DB00070477047002001E001C1121F002AFBD1BB
:102DC000704700000149086070470000580000206B
:102DD0002DE9FF5F82B00021DDE90430020DDDF84E
:102DE00040B0034318D044F61050A2F2FF324243E1
:102DF0001514119801281FD0A5EB0B00401C5FEAA9
:102E0000000A4FF000064E4FDFF83891B0465046AA
:102E100015D5CAF1000413E0119801244AA3012832
:102E200001D16FEA0B010298119AC0E90031C0E9A3
:102E3000024206B0BDE8F09FCBF10000DFE7044698
:102E40000021404A491842EB0450CDE9001012E03D
:102E5000E00707D032463B4640464946FDF701FBB6
:102E60008046894632463B4610461946FDF7F9FA38
:102E700006460F466410002CEAD1DDE90401DDE9C5
:102E80000023BAF1000F06DAFDF7EBFA42464B4693
:102E9000FDF7E7FA05E0FDF756FB42464B46FDF726
:102EA00052FB04460E460022284BFDF7A1FD03D835
:102EB0004FF0FF30014607E00022254B2046314607
:102EC000FDF728FAFDF763FD102409E0002C0ADB6A
:102ED0000A220023FDF724FC039B30321A55641E9E
:102EE00050EA0102F2D1641C039AC4F111031444A4
:102EF000119A012A03D0012208430DD10AE00843A8
:102F000004D000204FF0110B119072E7A3EB0B05DA
:102F10006D1E0DE05B4504DD4FF0000205F101057B
:102F200004E003DA4FF00002A5F10105002AECD01D
:102F300002981199C0E90231C0E9004579E7000023
:102F4000000014400000F03F300000000000F0439B
:102F50000000E03F2DE9FF4F95B09A4688460646AF
:102F60000025EEE1252877D100242746F94A0121E2
:102F7000039400E0044316F8013F203B01FA03F0FC
:102F80001042F7D130782A2811D06FF02F03307813
:102F9000A0F13002092A16D8039A44F0020402EB89
:102FA000820203EB42021044761C0390EFE758F8CC
:102FB000042B0392002A03DA504244F40054039095
:102FC00044F00204761C30782E2816D116F8010F32
:102FD00044F004042A280DD06FF02F023078A0F1BD
:102FE0003003092B09D807EB870302EB4303C7180B
:102FF000761CF3E758F8047B761C30786C280FD0E9
:1030000006DC4C2817D068280DD06A2814D104E0BB
:10301000742810D07A280FD10DE044F400140AE08F
:1030200044F4801401E044F440147278824202D1E6
:1030300004F58014761C761C307866280BD013DCDF
:10304000582877D009DC002875D04528F6D04628C6
:10305000F4D047281AD193E118E0632835D06428CA
:1030600079D0652812D18BE1702873D008DC6728ED
:10307000F1D069286FD06E280DD06F2806D1ACE052
:1030800073282CD0752874D0782853D052461799BD
:1030900090476D1C54E1C4F30250022809D0032864
:1030A0000DD0D8F8001004280DD00D6008F10408E8
:1030B00046E1D8F80010EA17C1E90052F6E7D8F85F
:1030C00000100D80F2E70D70F0E718F8041B8DF882
:1030D000001000208DF80100EB46012003E058F8B5
:1030E00004BB4FF0FF3061074FF0000102D40DE048
:1030F00009F101018946B9420FDA8145F8DB1BF875
:1031000009100029F4D108E009F101018946814242
:10311000FADB1BF809100029F6D103985346A0EBFF
:10312000090721463846179A00F080FA284400EB38
:10313000090507E044E008E10DE01BF8010B5246E9
:1031400017999047B9F10109F7D2534621463846FD
:10315000179AF2E039E00A21C4F302524FF0000B53
:103160000091022A06D058F8040BC117032A09D08F
:103170000AE023E008F1070020F00702F2E802016C
:10318000904605E000B2C117042A01D140B2C11730
:10319000002906DA0A460021404261EB02012D2295
:1031A00002E0220504D52B228DF80420012203E041
:1031B000E20701D02022F7E7914657E00A2100E01C
:1031C00010214FF0000B00910BE010214FF0000B8D
:1031D00044F004040827009103E008204FF0000B9E
:1031E0000090C4F30252022A05D058F8040B0021C3
:1031F000032A08D008E008F1070020F00702F2E8EF
:103200000201904603E080B2042A00D1C0B24FF020
:10321000000922072AD53278702A07D0DDF800C0CD
:103220008CF0100C5CEA0B0C05D00EE040228DF8FF
:103230000420012208E050EA010306D030238DF873
:1032400004308DF8052002229146009B83F008038C
:1032500053EA0B030AD150EA010201D1620705D5F6
:1032600030228DF804204FF001097F1E3278582A51
:1032700004D039A20C920CAA02920BE03BA2F9E70F
:103280005B46009AFDF74CFA0C9B9B5C029A521E1F
:103290000292137050EA0102F2D1029804A9081AAE
:1032A00000F1200B600702D524F4803400E00127F0
:1032B0005F4502DDA7EB0B0000E0002000EB0B01F7
:1032C000009003984944401A0390E00306D4534603
:1032D0002146179A039800F0A9F90544002706E053
:1032E00001A85246C05D179990476D1C7F1C4F4541
:1032F000F6DBE0030CD553462146179A039800F0FD
:1033000095F9054404E030205246179990476D1C0A
:103310000099481E00900029F5DC08E00298029907
:1033200052460078491C0291179990476D1CBBF1D9
:103330000001ABF1010BF1DC5BE100F065F9054444
:10334000761C307800287FF40DAE19B02846BDE811
:10335000F08F000009280100303132333435363720
:1033600038396162636465660000000030313233D1
:103370003435363738394142434445460000000071
:10338000600700D4062708F1070020F00700F0E8E6
:103390000223804603F0004C5FEA0C0001D097A0A6
:1033A00009E0200501D596A005E0E00701D095A031
:1033B00001E0AFF24C001390307823F00043652811
:1033C0000CD006DC452809D046281DD047287FD1DF
:1033D0003BE0662818D067287AD136E00021112F0B
:1033E00001DB112000E0781CCDE9000104A90CA844
:1033F000FFF7EEFCDDE90D010C9A4FF0000B07F131
:103400000109109200914EE04FF000400097CDE985
:10341000011004A90CA8FFF7DBFCDDE90D020C9BF1
:103420000F994FF0000B91461093009211B9791C3F
:1034300000EB0109B7EB090003D4C0F1FF3B07F132
:103440000109A9EB0700019042E0012F00DA0127F2
:103450000021112F01DD112000E03846CDE90001E7
:1034600004A90CA8FFF7B4FCDDE90D010C9A00914A
:103470004FF0000BB946109221070FD4009A4A452D
:1034800003DA914601E0A9F10109B9F1010F05DD67
:10349000109AA9F10101515C3029F4D0B84202DA46
:1034A00010F1040F03DA0121CDE9011010E000282A
:1034B00003DC8344A9EB000102E0411C494500DD27
:1034C0008946A0EB0B00401C01904FF00040029099
:1034D000200705D40198484502DB4FF0FF300190EA
:1034E00000208DF84B0002980DF14B07B0F1004F12
:1034F00025D002200C902B200D90029800280CDA89
:10350000404202902D200D9007E00A210298FDF71D
:10351000F1F83031029007F8011D0C99481E0C900B
:103520000029F2DC02980028EFD1791E0D9808706E
:10353000307800F0200040F0450007F8020D11A897
:10354000C01BC01D02901398007800B1012000EB51
:103550000901019801EBE071029801440398401AB7
:10356000401E0390E00306D453462146179A039861
:1035700000F05CF805441398007818B1524617998A
:1035800090476D1CE00323D553462146179A0398B4
:1035900000F04CF805441BE0BBF1000F07DB00987E
:1035A000584504DD1098179910F80B0001E01799A1
:1035B00030205246904701980BF1010B401E05F157
:1035C0000105019004D12E205246179990476D1C99
:1035D000B9F10001A9F10109DEDC05E017F8010BE2
:1035E0005246179990476D1C0299481E0290002977
:1035F000F4DC53462146179A03989EE62D000000FE
:103600002B000000200000002DE9F04104460025B9
:103610001E461746880404D405E039462020B047EA
:103620006D1C641EF9D52846BDE8F0812DE9F041F6
:10363000044600251E469046C80301D5302700E009
:103640002027880404D505E041463846B0476D1C64
:10365000641EF9D52846BDE8F08100002DE9F04D43
:103660008D4F21F0004A86B005460C46BA452ADB4C
:10367000AAEB070028430AD08848824501DC1AD10A
:10368000CDB106B02846BDE8F04DFFF778BB844ABF
:10369000844B2846FCF7E5FE07460E46824A834BDC
:1036A00028462146FCF7DDFE06B03A463346BDE823
:1036B000F04DFCF72FBE0120FFF784FB06B0BDE8FC
:1036C000F04DFFF761BB7A48824542DABAF1795F83
:1036D0000BDA2846FFF7DAFA042808BFFFF75AFB8F
:1036E000284606B02146BDE8F08D2A460B46104616
:1036F000FCF7B7FE834602466E480E460B4606218F
:103700007844FFF7E7FA5A463346FCF7AAFE8046AC
:1037100069488A465A46334604217844FFF7DAFA64
:103720005A463346FCF79DFE00223B46FCF7F2FD6D
:1037300002460B4640465146FCF705FF2A46234603
:10374000FCF78FFE06B02A462346BDE8F04DFCF795
:10375000E1BD284624F0004100223D463B46FCF7EF
:103760007DFE4FF0FF32FCF75DFF064602465348F0
:103770000F460B4606217844FFF7ACFA32463B462B
:10378000FCF76FFECDE900014D4832463B4604216F
:103790007844FFF79FFA32463B46FCF762FE002270
:1037A0002B46FCF7B7FD834602913046394600F0C0
:1037B00021FB804643480D46504517DCDDE90001FA
:1037C0005A46029BFCF7BFFE42462B46FCF749FED9
:1037D00042462B46FCF79EFD0122FCF723FF304AB0
:1037E000304BFCF738FE304A304B4CE04FF0000ACB
:1037F00052460B464046FCF78DFDCDE9031052467C
:103800002B4610461946FCF72CFE32463B46FCF789
:1038100025FEDDE90332FCF796FE06460F46DDE99C
:1038200000015A46029BFCF78EFE8346009101225E
:1038300030463946FCF7F6FE194A1A4BFCF70EFEE5
:1038400006460F46012240462946FCF7EBFE5A4643
:10385000009BFCF706FE32463B46FCF7FCFD0646A5
:103860000F46012250462946FCF7DCFE0E4DDFF8DC
:1038700058802A464346FCF7F1FD32463B46FCF7AA
:10388000EDFD2A464346FCF7E9FD002CD8BF81F048
:10389000004106B0BDE8F08D0000F03F0000F07F71
:1038A000075C143326A6913C182D4454FB21F93FA4
:1038B0000000E03F540700006A070000DE06000039
:1038C000F40600003333EF3FFB21E93F2DE9F84FC9
:1038D00004460D4621F0004000917349814211DCFD
:1038E0007249884201DC06D12CB120462946BDE848
:1038F000F84FFFF744BA6E48002DCCBF6D496E49B2
:10390000BDE8F88F6D49814211DD6D498142D8BF14
:103910004FF0FF366DDD20462946FFF7B7F9042842
:1039200008BFFFF737FA20462946BDE8F88F6549FA
:10393000654F25F00045814233DD6449814219DD40
:10394000002632464FF0804320462946FCF7E2FC31
:1039500080468A46012220462946FCF763FE002263
:103960003B46FCF778FD42465346FCF7ECFD044627
:103970000D463EE001260022BA463B462046294637
:10398000FCF7C8FC80460F460022534620462946D5
:10399000FCF761FD42463B46FCF7D5FD04460D466B
:1039A00027E04B4981421BDDDFF828A102260022D7
:1039B000534620462946FCF754FD00223B46FCF7BF
:1039C000A9FC80460F460022534620462946FCF7B4
:1039D00042FD42463B46FCF7B6FD04460D4608E074
:1039E000032622462B4600203B49FCF7ACFD04464B
:1039F0000D4622462B4610461946FCF732FD8B46F3
:103A0000824602460B46FCF72CFD07460246334829
:103A100088460B4606217844FFF75CF952465B4620
:103A2000FCF71FFD82462E488B463A464346052149
:103A30007844FFF74FF93A464346FCF712FD024639
:103A40000B46002E504659460CDAFCF763FC224622
:103A50002B46FCF706FD01B022462B46BDE8F04F91
:103A6000FCF7FCBCFCF756FC22462B46FCF7F9FCA5
:103A70001C4A7A4402EBC603D3E90023FCF7EBFCB3
:103A800022462B46FCF7E7FC174A7A4402EBC603B2
:103A9000D3E90023FCF7E2FC009A002AB8BF81F0CA
:103AA0000041BDE8F88F0000000010440000F07FE6
:103AB000182D4454FB21F93FFB21F9BF0000DC3FE6
:103AC0000000203E0000F33F0000F03F0000E63F12
:103AD000008003400000F83F0000F0BFF604000043
:103AE000B4040000520400001A0400002DE9F04D57
:103AF0009446CCF1000423F000464CEA0404594FEC
:103B000046EAD4749A46884621F00042BC4206D860
:103B1000454240EA050442EAD474BC4204D9BDE8F7
:103B2000F04D6246FFF72EB9AAF14055A5F17F6529
:103B300055EA0C040BD0022404EAAA744A4DDFF8BB
:103B40002CE144EAD87452EA000B04D00CE0BDE842
:103B5000F04DFFF7BBBE002C14BF012CBDE8F08D6B
:103B6000022C30D0032C32D056EA0C0B0AD0BE42C5
:103B700020D1BA4209D126F0804622F08042334655
:103B8000114617E000291ADB25E0DFF8E4B0FB441A
:103B9000002C04BFDBE90001BDE8F08D012C02BF61
:103BA000DBE9000181F00041BDE8F08D022C0AD074
:103BB000032C0CD0BA4212D1B8F1000F0BDA2A480C
:103BC0002C49BDE8F08D28462B49BDE8F08D2846EC
:103BD0007146BDE8F08D24482849BDE8F08D921B60
:103BE00012153C2AC4BF204F244E10DCBAF1000F3E
:103BF000BEBF12F13C0F00273E4608DB6246FCF7D1
:103C0000A2FC21F00041FFF761FE07460E4694B189
:103C1000012C08BF86F000460DD0194A194B022C22
:103C20003846314615D0FCF716FC2A46BDE8F04D63
:103C3000114BFCF710BC0022134638463146FCF706
:103C4000BFFE04BF0220FFF7BDF838463146BDE88D
:103C5000F08DFCF700FC2A46BDE8F04D064BFCF762
:103C6000FDBB00000000F07F182D4454FB2109C06B
:103C7000AE030000FB21F9BFFB210940FB21F93F06
:103C8000075C143326A6A13C70B54FF0E023002159
:103C90005C6900EBC0009A69C50098699042FCD04D
:103CA00002D2A2EB000202E0A4EB0006324411446F
:103CB0000246A942F1D370BD10B5044605484FF441
:103CC0007A73411C447001220348FDF799FE204697
:103CD00010BD000000000020C000002070B5134D92
:103CE0004FF40064002221462846FDF758F90220CF
:103CF000FFF7CAFF0122960231462846FDF74FF929
:103D00000220FFF7C1FF002231462846FDF747F9A0
:103D10000220FFF7B9FF012221462846FDF73FF9AF
:103D2000BDE870400220FFF7AFBF0000000C01406B
:103D300070B50E4C0122D1022046FDF730F9022069
:103D4000FFF7A2FF0122950229462046FDF727F939
:103D50000220FFF799FF002229462046FDF71FF9B0
:103D6000BDE870400220FFF78FBF0000000C01404B
:103D700010B504464FF0FF31FCF7C0FA0849A1EB3B
:103D800064042146FCF74AFA2146FCF747FA4FF053
:103D90007F51FCF740FA2146BDE81040FCF73EBADF
:103DA000DF59375FFDF70EF9FEF72CFDFEF740FBFC
:103DB000FEF720FBFEF774FB0C480068C16841F079
:103DC0001001C16064220A490848FDF701FE4FF462
:103DD0007A70FCF7DDFFFDF7BFFF00BFFEF706FFBF
:103DE000FDF7CAFF0120FCF7D3FFF7E7C000002072
:103DF0005C0000202DE9F04106460F46FCF776FDF9
:103E0000041E0D4618BF0120284320F00040C0F1D9
:103E10007F6000F1E040C00F0ED0301C18BF0120C1
:103E2000384320F00040C0F17F6000F1E040C00F57
:103E300004BF0120FEF7C6FF20462946BDE8F081F9
:103E4000000000000000000001020304060708094A
:103E50000000000001020304555555555555C53F56
:103E60007D6FEB0312D6D4BF5544880E55C1C93FB0
:103E70003B8F68B52882A4BF88B20175E0EF493F47
:103E800009F7FD0DE13D023F4B2D8A1C273A03C087
:103E9000C88A599CE52A004059018D1B6C06E6BF73
:103EA00082922EB1C5B8B33F4FBB610567ACDD3F11
:103EB000182D4454FB21E93F9BF681D20B73EF3F51
:103EC000182D4454FB21F93FE2652F227F2B7A3CC9
:103ED000075C143326A6813CBDCBF07A8807703C82
:103EE000075C143326A6913CC4EB98999999C9BFF5
:103EF000711623FEC671BCBF6D9A74AFF2B0B3BF2A
:103F00009AFDDE522DDEADBF2F6C6A2C44B4A2BFE9
:103F10000D5555555555D53FFF8300922449C23F55
:103F20006E204CC5CD45B73F513DD0A0660DB13F89
:103F3000EB0D76244B7BA93F11DA22E33AAD903F9B
:103F40000000000000000000683F000800000020A2
:103F50005C000000A42D0008C43F00085C000020A5
:103F6000EC050000B42D0008000000000100000076
:103F700010000000000000000024F4000000803F5A
:103F8000000000000000803F000000000000000072
:103F90000000000000000000000000000000000021
:103FA0000000000000000000000000000000000011
:103FB0000000000000000000000000000000000001
:043FC00000000000FD
:04000005080000ED02
:00000001FF
